{
  "contractName": "SafeWrappedDollar",
  "abi": [
    {
      "inputs": [
        {
          "internalType": "address",
          "name": "_sUSDContractAddr",
          "type": "address"
        },
        {
          "internalType": "address",
          "name": "_chainLinkOracle",
          "type": "address"
        },
        {
          "internalType": "address",
          "name": "_poolAddressProviderAddr",
          "type": "address"
        }
      ],
      "stateMutability": "nonpayable",
      "type": "constructor"
    },
    {
      "anonymous": false,
      "inputs": [
        {
          "indexed": true,
          "internalType": "address",
          "name": "owner",
          "type": "address"
        },
        {
          "indexed": true,
          "internalType": "address",
          "name": "spender",
          "type": "address"
        },
        {
          "indexed": false,
          "internalType": "uint256",
          "name": "value",
          "type": "uint256"
        }
      ],
      "name": "Approval",
      "type": "event"
    },
    {
      "anonymous": false,
      "inputs": [
        {
          "indexed": true,
          "internalType": "address",
          "name": "previousOwner",
          "type": "address"
        },
        {
          "indexed": true,
          "internalType": "address",
          "name": "newOwner",
          "type": "address"
        }
      ],
      "name": "OwnershipTransferred",
      "type": "event"
    },
    {
      "anonymous": false,
      "inputs": [
        {
          "indexed": false,
          "internalType": "address",
          "name": "account",
          "type": "address"
        }
      ],
      "name": "Paused",
      "type": "event"
    },
    {
      "anonymous": false,
      "inputs": [
        {
          "indexed": true,
          "internalType": "address",
          "name": "from",
          "type": "address"
        },
        {
          "indexed": true,
          "internalType": "address",
          "name": "to",
          "type": "address"
        },
        {
          "indexed": false,
          "internalType": "uint256",
          "name": "value",
          "type": "uint256"
        }
      ],
      "name": "Transfer",
      "type": "event"
    },
    {
      "anonymous": false,
      "inputs": [
        {
          "indexed": false,
          "internalType": "address",
          "name": "account",
          "type": "address"
        }
      ],
      "name": "Unpaused",
      "type": "event"
    },
    {
      "inputs": [
        {
          "internalType": "address",
          "name": "owner",
          "type": "address"
        },
        {
          "internalType": "address",
          "name": "spender",
          "type": "address"
        }
      ],
      "name": "allowance",
      "outputs": [
        {
          "internalType": "uint256",
          "name": "",
          "type": "uint256"
        }
      ],
      "stateMutability": "view",
      "type": "function"
    },
    {
      "inputs": [
        {
          "internalType": "address",
          "name": "spender",
          "type": "address"
        },
        {
          "internalType": "uint256",
          "name": "amount",
          "type": "uint256"
        }
      ],
      "name": "approve",
      "outputs": [
        {
          "internalType": "bool",
          "name": "",
          "type": "bool"
        }
      ],
      "stateMutability": "nonpayable",
      "type": "function"
    },
    {
      "inputs": [
        {
          "internalType": "address",
          "name": "account",
          "type": "address"
        }
      ],
      "name": "balanceOf",
      "outputs": [
        {
          "internalType": "uint256",
          "name": "",
          "type": "uint256"
        }
      ],
      "stateMutability": "view",
      "type": "function"
    },
    {
      "inputs": [
        {
          "internalType": "uint256",
          "name": "amount",
          "type": "uint256"
        }
      ],
      "name": "burn",
      "outputs": [],
      "stateMutability": "nonpayable",
      "type": "function"
    },
    {
      "inputs": [
        {
          "internalType": "address",
          "name": "account",
          "type": "address"
        },
        {
          "internalType": "uint256",
          "name": "amount",
          "type": "uint256"
        }
      ],
      "name": "burnFrom",
      "outputs": [],
      "stateMutability": "nonpayable",
      "type": "function"
    },
    {
      "inputs": [],
      "name": "decimals",
      "outputs": [
        {
          "internalType": "uint8",
          "name": "",
          "type": "uint8"
        }
      ],
      "stateMutability": "view",
      "type": "function"
    },
    {
      "inputs": [
        {
          "internalType": "address",
          "name": "spender",
          "type": "address"
        },
        {
          "internalType": "uint256",
          "name": "subtractedValue",
          "type": "uint256"
        }
      ],
      "name": "decreaseAllowance",
      "outputs": [
        {
          "internalType": "bool",
          "name": "",
          "type": "bool"
        }
      ],
      "stateMutability": "nonpayable",
      "type": "function"
    },
    {
      "inputs": [
        {
          "internalType": "address",
          "name": "spender",
          "type": "address"
        },
        {
          "internalType": "uint256",
          "name": "addedValue",
          "type": "uint256"
        }
      ],
      "name": "increaseAllowance",
      "outputs": [
        {
          "internalType": "bool",
          "name": "",
          "type": "bool"
        }
      ],
      "stateMutability": "nonpayable",
      "type": "function"
    },
    {
      "inputs": [],
      "name": "name",
      "outputs": [
        {
          "internalType": "string",
          "name": "",
          "type": "string"
        }
      ],
      "stateMutability": "view",
      "type": "function"
    },
    {
      "inputs": [],
      "name": "owner",
      "outputs": [
        {
          "internalType": "address",
          "name": "",
          "type": "address"
        }
      ],
      "stateMutability": "view",
      "type": "function"
    },
    {
      "inputs": [],
      "name": "paused",
      "outputs": [
        {
          "internalType": "bool",
          "name": "",
          "type": "bool"
        }
      ],
      "stateMutability": "view",
      "type": "function"
    },
    {
      "inputs": [],
      "name": "renounceOwnership",
      "outputs": [],
      "stateMutability": "nonpayable",
      "type": "function"
    },
    {
      "inputs": [],
      "name": "symbol",
      "outputs": [
        {
          "internalType": "string",
          "name": "",
          "type": "string"
        }
      ],
      "stateMutability": "view",
      "type": "function"
    },
    {
      "inputs": [],
      "name": "totalSupply",
      "outputs": [
        {
          "internalType": "uint256",
          "name": "",
          "type": "uint256"
        }
      ],
      "stateMutability": "view",
      "type": "function"
    },
    {
      "inputs": [
        {
          "internalType": "address",
          "name": "to",
          "type": "address"
        },
        {
          "internalType": "uint256",
          "name": "amount",
          "type": "uint256"
        }
      ],
      "name": "transfer",
      "outputs": [
        {
          "internalType": "bool",
          "name": "",
          "type": "bool"
        }
      ],
      "stateMutability": "nonpayable",
      "type": "function"
    },
    {
      "inputs": [
        {
          "internalType": "address",
          "name": "from",
          "type": "address"
        },
        {
          "internalType": "address",
          "name": "to",
          "type": "address"
        },
        {
          "internalType": "uint256",
          "name": "amount",
          "type": "uint256"
        }
      ],
      "name": "transferFrom",
      "outputs": [
        {
          "internalType": "bool",
          "name": "",
          "type": "bool"
        }
      ],
      "stateMutability": "nonpayable",
      "type": "function"
    },
    {
      "inputs": [
        {
          "internalType": "address",
          "name": "newOwner",
          "type": "address"
        }
      ],
      "name": "transferOwnership",
      "outputs": [],
      "stateMutability": "nonpayable",
      "type": "function"
    },
    {
      "inputs": [],
      "name": "pause",
      "outputs": [],
      "stateMutability": "nonpayable",
      "type": "function"
    },
    {
      "inputs": [],
      "name": "unpause",
      "outputs": [],
      "stateMutability": "nonpayable",
      "type": "function"
    },
    {
      "inputs": [
        {
          "internalType": "address",
          "name": "to",
          "type": "address"
        },
        {
          "internalType": "uint256",
          "name": "amount",
          "type": "uint256"
        }
      ],
      "name": "mint",
      "outputs": [],
      "stateMutability": "nonpayable",
      "type": "function"
    },
    {
      "inputs": [
        {
          "internalType": "uint256",
          "name": "_amount",
          "type": "uint256"
        }
      ],
      "name": "mintSafeUSD",
      "outputs": [],
      "stateMutability": "nonpayable",
      "type": "function"
    }
  ],
  "bytecode": "0x6080604052600660009054906101000a900473ffffffffffffffffffffffffffffffffffffffff16600960006101000a81548173ffffffffffffffffffffffffffffffffffffffff021916908373ffffffffffffffffffffffffffffffffffffffff160217905550600860009054906101000a900473ffffffffffffffffffffffffffffffffffffffff16600a60006101000a81548173ffffffffffffffffffffffffffffffffffffffff021916908373ffffffffffffffffffffffffffffffffffffffff160217905550348015620000d757600080fd5b50604051620029aa380380620029aa8339818101604052810190620000fd91906200048c565b6040518060400160405280601181526020017f7361666557726170706564446f6c6c61720000000000000000000000000000008152506040518060400160405280600581526020017f737755534400000000000000000000000000000000000000000000000000000081525081600390805190602001906200018192919062000372565b5080600490805190602001906200019a92919062000372565b5050506000600560006101000a81548160ff021916908315150217905550620001d8620001cc620002a460201b60201c565b620002ac60201b60201c565b82600660006101000a81548173ffffffffffffffffffffffffffffffffffffffff021916908373ffffffffffffffffffffffffffffffffffffffff16021790555081600760006101000a81548173ffffffffffffffffffffffffffffffffffffffff021916908373ffffffffffffffffffffffffffffffffffffffff16021790555080600860006101000a81548173ffffffffffffffffffffffffffffffffffffffff021916908373ffffffffffffffffffffffffffffffffffffffff1602179055505050506200054c565b600033905090565b6000600560019054906101000a900473ffffffffffffffffffffffffffffffffffffffff16905081600560016101000a81548173ffffffffffffffffffffffffffffffffffffffff021916908373ffffffffffffffffffffffffffffffffffffffff1602179055508173ffffffffffffffffffffffffffffffffffffffff168173ffffffffffffffffffffffffffffffffffffffff167f8be0079c531659141344cd1fd0a4f28419497f9722a3daafe3b4186f6b6457e060405160405180910390a35050565b828054620003809062000517565b90600052602060002090601f016020900481019282620003a45760008555620003f0565b82601f10620003bf57805160ff1916838001178555620003f0565b82800160010185558215620003f0579182015b82811115620003ef578251825591602001919060010190620003d2565b5b509050620003ff919062000403565b5090565b5b808211156200041e57600081600090555060010162000404565b5090565b600080fd5b600073ffffffffffffffffffffffffffffffffffffffff82169050919050565b6000620004548262000427565b9050919050565b620004668162000447565b81146200047257600080fd5b50565b60008151905062000486816200045b565b92915050565b600080600060608486031215620004a857620004a762000422565b5b6000620004b88682870162000475565b9350506020620004cb8682870162000475565b9250506040620004de8682870162000475565b9150509250925092565b7f4e487b7100000000000000000000000000000000000000000000000000000000600052602260045260246000fd5b600060028204905060018216806200053057607f821691505b602082108103620005465762000545620004e8565b5b50919050565b61244e806200055c6000396000f3fe608060405234801561001057600080fd5b50600436106101375760003560e01c806364ef0cb9116100b85780638da5cb5b1161007c5780638da5cb5b1461030257806395d89b4114610320578063a457c2d71461033e578063a9059cbb1461036e578063dd62ed3e1461039e578063f2fde38b146103ce57610137565b806364ef0cb91461028657806370a08231146102a2578063715018a6146102d257806379cc6790146102dc5780638456cb59146102f857610137565b806339509351116100ff57806339509351146101f65780633f4ba83a1461022657806340c10f191461023057806342966c681461024c5780635c975abb1461026857610137565b806306fdde031461013c578063095ea7b31461015a57806318160ddd1461018a57806323b872dd146101a8578063313ce567146101d8575b600080fd5b6101446103ea565b60405161015191906117c7565b60405180910390f35b610174600480360381019061016f9190611882565b61047c565b60405161018191906118dd565b60405180910390f35b61019261049f565b60405161019f9190611907565b60405180910390f35b6101c260048036038101906101bd9190611922565b6104a9565b6040516101cf91906118dd565b60405180910390f35b6101e06104d8565b6040516101ed9190611991565b60405180910390f35b610210600480360381019061020b9190611882565b6104e1565b60405161021d91906118dd565b60405180910390f35b61022e610518565b005b61024a60048036038101906102459190611882565b61059e565b005b610266600480360381019061026191906119ac565b610628565b005b61027061063c565b60405161027d91906118dd565b60405180910390f35b6102a0600480360381019061029b91906119ac565b610653565b005b6102bc60048036038101906102b791906119d9565b610866565b6040516102c99190611907565b60405180910390f35b6102da6108ae565b005b6102f660048036038101906102f19190611882565b610936565b005b610300610956565b005b61030a6109dc565b6040516103179190611a15565b60405180910390f35b610328610a06565b60405161033591906117c7565b60405180910390f35b61035860048036038101906103539190611882565b610a98565b60405161036591906118dd565b60405180910390f35b61038860048036038101906103839190611882565b610b0f565b60405161039591906118dd565b60405180910390f35b6103b860048036038101906103b39190611a30565b610b32565b6040516103c59190611907565b60405180910390f35b6103e860048036038101906103e391906119d9565b610bb9565b005b6060600380546103f990611a9f565b80601f016020809104026020016040519081016040528092919081815260200182805461042590611a9f565b80156104725780601f1061044757610100808354040283529160200191610472565b820191906000526020600020905b81548152906001019060200180831161045557829003601f168201915b5050505050905090565b600080610487610cb0565b9050610494818585610cb8565b600191505092915050565b6000600254905090565b6000806104b4610cb0565b90506104c1858285610e81565b6104cc858585610f0d565b60019150509392505050565b60006012905090565b6000806104ec610cb0565b905061050d8185856104fe8589610b32565b6105089190611aff565b610cb8565b600191505092915050565b610520610cb0565b73ffffffffffffffffffffffffffffffffffffffff1661053e6109dc565b73ffffffffffffffffffffffffffffffffffffffff1614610594576040517f08c379a000000000000000000000000000000000000000000000000000000000815260040161058b90611ba1565b60405180910390fd5b61059c61118c565b565b6105a6610cb0565b73ffffffffffffffffffffffffffffffffffffffff166105c46109dc565b73ffffffffffffffffffffffffffffffffffffffff161461061a576040517f08c379a000000000000000000000000000000000000000000000000000000000815260040161061190611ba1565b60405180910390fd5b610624828261122e565b5050565b610639610633610cb0565b8261138d565b50565b6000600560009054906101000a900460ff16905090565b600073139d8f557f70d1903787e929d7c42165c46672299050600960009054906101000a900473ffffffffffffffffffffffffffffffffffffffff1673ffffffffffffffffffffffffffffffffffffffff166323b872dd3330856040518463ffffffff1660e01b81526004016106cb93929190611bc1565b6020604051808303816000875af11580156106ea573d6000803e3d6000fd5b505050506040513d601f19601f8201168201806040525081019061070e9190611c24565b50600960009054906101000a900473ffffffffffffffffffffffffffffffffffffffff1673ffffffffffffffffffffffffffffffffffffffff1663095ea7b373139d8f557f70d1903787e929d7c42165c4667229846040518363ffffffff1660e01b8152600401610780929190611c51565b6020604051808303816000875af115801561079f573d6000803e3d6000fd5b505050506040513d601f19601f820116820180604052508101906107c39190611c24565b508073ffffffffffffffffffffffffffffffffffffffff1663617ba037600660009054906101000a900473ffffffffffffffffffffffffffffffffffffffff16843060006040518563ffffffff1660e01b81526004016108269493929190611ccd565b600060405180830381600087803b15801561084057600080fd5b505af1158015610854573d6000803e3d6000fd5b50505050610862338361122e565b5050565b60008060008373ffffffffffffffffffffffffffffffffffffffff1673ffffffffffffffffffffffffffffffffffffffff168152602001908152602001600020549050919050565b6108b6610cb0565b73ffffffffffffffffffffffffffffffffffffffff166108d46109dc565b73ffffffffffffffffffffffffffffffffffffffff161461092a576040517f08c379a000000000000000000000000000000000000000000000000000000000815260040161092190611ba1565b60405180910390fd5b6109346000611563565b565b61094882610942610cb0565b83610e81565b610952828261138d565b5050565b61095e610cb0565b73ffffffffffffffffffffffffffffffffffffffff1661097c6109dc565b73ffffffffffffffffffffffffffffffffffffffff16146109d2576040517f08c379a00000000000000000000000000000000000000000000000000000000081526004016109c990611ba1565b60405180910390fd5b6109da611629565b565b6000600560019054906101000a900473ffffffffffffffffffffffffffffffffffffffff16905090565b606060048054610a1590611a9f565b80601f0160208091040260200160405190810160405280929190818152602001828054610a4190611a9f565b8015610a8e5780601f10610a6357610100808354040283529160200191610a8e565b820191906000526020600020905b815481529060010190602001808311610a7157829003601f168201915b5050505050905090565b600080610aa3610cb0565b90506000610ab18286610b32565b905083811015610af6576040517f08c379a0000000000000000000000000000000000000000000000000000000008152600401610aed90611d84565b60405180910390fd5b610b038286868403610cb8565b60019250505092915050565b600080610b1a610cb0565b9050610b27818585610f0d565b600191505092915050565b6000600160008473ffffffffffffffffffffffffffffffffffffffff1673ffffffffffffffffffffffffffffffffffffffff16815260200190815260200160002060008373ffffffffffffffffffffffffffffffffffffffff1673ffffffffffffffffffffffffffffffffffffffff16815260200190815260200160002054905092915050565b610bc1610cb0565b73ffffffffffffffffffffffffffffffffffffffff16610bdf6109dc565b73ffffffffffffffffffffffffffffffffffffffff1614610c35576040517f08c379a0000000000000000000000000000000000000000000000000000000008152600401610c2c90611ba1565b60405180910390fd5b600073ffffffffffffffffffffffffffffffffffffffff168173ffffffffffffffffffffffffffffffffffffffff1603610ca4576040517f08c379a0000000000000000000000000000000000000000000000000000000008152600401610c9b90611e16565b60405180910390fd5b610cad81611563565b50565b600033905090565b600073ffffffffffffffffffffffffffffffffffffffff168373ffffffffffffffffffffffffffffffffffffffff1603610d27576040517f08c379a0000000000000000000000000000000000000000000000000000000008152600401610d1e90611ea8565b60405180910390fd5b600073ffffffffffffffffffffffffffffffffffffffff168273ffffffffffffffffffffffffffffffffffffffff1603610d96576040517f08c379a0000000000000000000000000000000000000000000000000000000008152600401610d8d90611f3a565b60405180910390fd5b80600160008573ffffffffffffffffffffffffffffffffffffffff1673ffffffffffffffffffffffffffffffffffffffff16815260200190815260200160002060008473ffffffffffffffffffffffffffffffffffffffff1673ffffffffffffffffffffffffffffffffffffffff168152602001908152602001600020819055508173ffffffffffffffffffffffffffffffffffffffff168373ffffffffffffffffffffffffffffffffffffffff167f8c5be1e5ebec7d5bd14f71427d1e84f3dd0314c0f7b2291e5b200ac8c7c3b92583604051610e749190611907565b60405180910390a3505050565b6000610e8d8484610b32565b90507fffffffffffffffffffffffffffffffffffffffffffffffffffffffffffffffff8114610f075781811015610ef9576040517f08c379a0000000000000000000000000000000000000000000000000000000008152600401610ef090611fa6565b60405180910390fd5b610f068484848403610cb8565b5b50505050565b600073ffffffffffffffffffffffffffffffffffffffff168373ffffffffffffffffffffffffffffffffffffffff1603610f7c576040517f08c379a0000000000000000000000000000000000000000000000000000000008152600401610f7390612038565b60405180910390fd5b600073ffffffffffffffffffffffffffffffffffffffff168273ffffffffffffffffffffffffffffffffffffffff1603610feb576040517f08c379a0000000000000000000000000000000000000000000000000000000008152600401610fe2906120ca565b60405180910390fd5b610ff68383836116cc565b60008060008573ffffffffffffffffffffffffffffffffffffffff1673ffffffffffffffffffffffffffffffffffffffff1681526020019081526020016000205490508181101561107c576040517f08c379a00000000000000000000000000000000000000000000000000000000081526004016110739061215c565b60405180910390fd5b8181036000808673ffffffffffffffffffffffffffffffffffffffff1673ffffffffffffffffffffffffffffffffffffffff16815260200190815260200160002081905550816000808573ffffffffffffffffffffffffffffffffffffffff1673ffffffffffffffffffffffffffffffffffffffff168152602001908152602001600020600082825461110f9190611aff565b925050819055508273ffffffffffffffffffffffffffffffffffffffff168473ffffffffffffffffffffffffffffffffffffffff167fddf252ad1be2c89b69c2b068fc378daa952ba7f163c4a11628f55a4df523b3ef846040516111739190611907565b60405180910390a3611186848484611724565b50505050565b61119461063c565b6111d3576040517f08c379a00000000000000000000000000000000000000000000000000000000081526004016111ca906121c8565b60405180910390fd5b6000600560006101000a81548160ff0219169083151502179055507f5db9ee0a495bf2e6ff9c91a7834c1ba4fdd244a5e8aa4e537bd38aeae4b073aa611217610cb0565b6040516112249190611a15565b60405180910390a1565b600073ffffffffffffffffffffffffffffffffffffffff168273ffffffffffffffffffffffffffffffffffffffff160361129d576040517f08c379a000000000000000000000000000000000000000000000000000000000815260040161129490612234565b60405180910390fd5b6112a9600083836116cc565b80600260008282546112bb9190611aff565b92505081905550806000808473ffffffffffffffffffffffffffffffffffffffff1673ffffffffffffffffffffffffffffffffffffffff16815260200190815260200160002060008282546113109190611aff565b925050819055508173ffffffffffffffffffffffffffffffffffffffff16600073ffffffffffffffffffffffffffffffffffffffff167fddf252ad1be2c89b69c2b068fc378daa952ba7f163c4a11628f55a4df523b3ef836040516113759190611907565b60405180910390a361138960008383611724565b5050565b600073ffffffffffffffffffffffffffffffffffffffff168273ffffffffffffffffffffffffffffffffffffffff16036113fc576040517f08c379a00000000000000000000000000000000000000000000000000000000081526004016113f3906122c6565b60405180910390fd5b611408826000836116cc565b60008060008473ffffffffffffffffffffffffffffffffffffffff1673ffffffffffffffffffffffffffffffffffffffff1681526020019081526020016000205490508181101561148e576040517f08c379a000000000000000000000000000000000000000000000000000000000815260040161148590612358565b60405180910390fd5b8181036000808573ffffffffffffffffffffffffffffffffffffffff1673ffffffffffffffffffffffffffffffffffffffff1681526020019081526020016000208190555081600260008282546114e59190612378565b92505081905550600073ffffffffffffffffffffffffffffffffffffffff168373ffffffffffffffffffffffffffffffffffffffff167fddf252ad1be2c89b69c2b068fc378daa952ba7f163c4a11628f55a4df523b3ef8460405161154a9190611907565b60405180910390a361155e83600084611724565b505050565b6000600560019054906101000a900473ffffffffffffffffffffffffffffffffffffffff16905081600560016101000a81548173ffffffffffffffffffffffffffffffffffffffff021916908373ffffffffffffffffffffffffffffffffffffffff1602179055508173ffffffffffffffffffffffffffffffffffffffff168173ffffffffffffffffffffffffffffffffffffffff167f8be0079c531659141344cd1fd0a4f28419497f9722a3daafe3b4186f6b6457e060405160405180910390a35050565b61163161063c565b15611671576040517f08c379a0000000000000000000000000000000000000000000000000000000008152600401611668906123f8565b60405180910390fd5b6001600560006101000a81548160ff0219169083151502179055507f62e78cea01bee320cd4e420270b5ea74000d11b0c9f74754ebdbfc544b05a2586116b5610cb0565b6040516116c29190611a15565b60405180910390a1565b6116d461063c565b15611714576040517f08c379a000000000000000000000000000000000000000000000000000000000815260040161170b906123f8565b60405180910390fd5b61171f838383611729565b505050565b505050565b505050565b600081519050919050565b600082825260208201905092915050565b60005b8381101561176857808201518184015260208101905061174d565b83811115611777576000848401525b50505050565b6000601f19601f8301169050919050565b60006117998261172e565b6117a38185611739565b93506117b381856020860161174a565b6117bc8161177d565b840191505092915050565b600060208201905081810360008301526117e1818461178e565b905092915050565b600080fd5b600073ffffffffffffffffffffffffffffffffffffffff82169050919050565b6000611819826117ee565b9050919050565b6118298161180e565b811461183457600080fd5b50565b60008135905061184681611820565b92915050565b6000819050919050565b61185f8161184c565b811461186a57600080fd5b50565b60008135905061187c81611856565b92915050565b60008060408385031215611899576118986117e9565b5b60006118a785828601611837565b92505060206118b88582860161186d565b9150509250929050565b60008115159050919050565b6118d7816118c2565b82525050565b60006020820190506118f260008301846118ce565b92915050565b6119018161184c565b82525050565b600060208201905061191c60008301846118f8565b92915050565b60008060006060848603121561193b5761193a6117e9565b5b600061194986828701611837565b935050602061195a86828701611837565b925050604061196b8682870161186d565b9150509250925092565b600060ff82169050919050565b61198b81611975565b82525050565b60006020820190506119a66000830184611982565b92915050565b6000602082840312156119c2576119c16117e9565b5b60006119d08482850161186d565b91505092915050565b6000602082840312156119ef576119ee6117e9565b5b60006119fd84828501611837565b91505092915050565b611a0f8161180e565b82525050565b6000602082019050611a2a6000830184611a06565b92915050565b60008060408385031215611a4757611a466117e9565b5b6000611a5585828601611837565b9250506020611a6685828601611837565b9150509250929050565b7f4e487b7100000000000000000000000000000000000000000000000000000000600052602260045260246000fd5b60006002820490506001821680611ab757607f821691505b602082108103611aca57611ac9611a70565b5b50919050565b7f4e487b7100000000000000000000000000000000000000000000000000000000600052601160045260246000fd5b6000611b0a8261184c565b9150611b158361184c565b9250827fffffffffffffffffffffffffffffffffffffffffffffffffffffffffffffffff03821115611b4a57611b49611ad0565b5b828201905092915050565b7f4f776e61626c653a2063616c6c6572206973206e6f7420746865206f776e6572600082015250565b6000611b8b602083611739565b9150611b9682611b55565b602082019050919050565b60006020820190508181036000830152611bba81611b7e565b9050919050565b6000606082019050611bd66000830186611a06565b611be36020830185611a06565b611bf060408301846118f8565b949350505050565b611c01816118c2565b8114611c0c57600080fd5b50565b600081519050611c1e81611bf8565b92915050565b600060208284031215611c3a57611c396117e9565b5b6000611c4884828501611c0f565b91505092915050565b6000604082019050611c666000830185611a06565b611c7360208301846118f8565b9392505050565b6000819050919050565b600061ffff82169050919050565b6000819050919050565b6000611cb7611cb2611cad84611c7a565b611c92565b611c84565b9050919050565b611cc781611c9c565b82525050565b6000608082019050611ce26000830187611a06565b611cef60208301866118f8565b611cfc6040830185611a06565b611d096060830184611cbe565b95945050505050565b7f45524332303a2064656372656173656420616c6c6f77616e63652062656c6f7760008201527f207a65726f000000000000000000000000000000000000000000000000000000602082015250565b6000611d6e602583611739565b9150611d7982611d12565b604082019050919050565b60006020820190508181036000830152611d9d81611d61565b9050919050565b7f4f776e61626c653a206e6577206f776e657220697320746865207a65726f206160008201527f6464726573730000000000000000000000000000000000000000000000000000602082015250565b6000611e00602683611739565b9150611e0b82611da4565b604082019050919050565b60006020820190508181036000830152611e2f81611df3565b9050919050565b7f45524332303a20617070726f76652066726f6d20746865207a65726f2061646460008201527f7265737300000000000000000000000000000000000000000000000000000000602082015250565b6000611e92602483611739565b9150611e9d82611e36565b604082019050919050565b60006020820190508181036000830152611ec181611e85565b9050919050565b7f45524332303a20617070726f766520746f20746865207a65726f20616464726560008201527f7373000000000000000000000000000000000000000000000000000000000000602082015250565b6000611f24602283611739565b9150611f2f82611ec8565b604082019050919050565b60006020820190508181036000830152611f5381611f17565b9050919050565b7f45524332303a20696e73756666696369656e7420616c6c6f77616e6365000000600082015250565b6000611f90601d83611739565b9150611f9b82611f5a565b602082019050919050565b60006020820190508181036000830152611fbf81611f83565b9050919050565b7f45524332303a207472616e736665722066726f6d20746865207a65726f20616460008201527f6472657373000000000000000000000000000000000000000000000000000000602082015250565b6000612022602583611739565b915061202d82611fc6565b604082019050919050565b6000602082019050818103600083015261205181612015565b9050919050565b7f45524332303a207472616e7366657220746f20746865207a65726f206164647260008201527f6573730000000000000000000000000000000000000000000000000000000000602082015250565b60006120b4602383611739565b91506120bf82612058565b604082019050919050565b600060208201905081810360008301526120e3816120a7565b9050919050565b7f45524332303a207472616e7366657220616d6f756e742065786365656473206260008201527f616c616e63650000000000000000000000000000000000000000000000000000602082015250565b6000612146602683611739565b9150612151826120ea565b604082019050919050565b6000602082019050818103600083015261217581612139565b9050919050565b7f5061757361626c653a206e6f7420706175736564000000000000000000000000600082015250565b60006121b2601483611739565b91506121bd8261217c565b602082019050919050565b600060208201905081810360008301526121e1816121a5565b9050919050565b7f45524332303a206d696e7420746f20746865207a65726f206164647265737300600082015250565b600061221e601f83611739565b9150612229826121e8565b602082019050919050565b6000602082019050818103600083015261224d81612211565b9050919050565b7f45524332303a206275726e2066726f6d20746865207a65726f2061646472657360008201527f7300000000000000000000000000000000000000000000000000000000000000602082015250565b60006122b0602183611739565b91506122bb82612254565b604082019050919050565b600060208201905081810360008301526122df816122a3565b9050919050565b7f45524332303a206275726e20616d6f756e7420657863656564732062616c616e60008201527f6365000000000000000000000000000000000000000000000000000000000000602082015250565b6000612342602283611739565b915061234d826122e6565b604082019050919050565b6000602082019050818103600083015261237181612335565b9050919050565b60006123838261184c565b915061238e8361184c565b9250828210156123a1576123a0611ad0565b5b828203905092915050565b7f5061757361626c653a2070617573656400000000000000000000000000000000600082015250565b60006123e2601083611739565b91506123ed826123ac565b602082019050919050565b60006020820190508181036000830152612411816123d5565b905091905056fea26469706673582212204123286f1b2376eb7d66205746def98bdcaabbf03dcf4d436e26187719ea158a64736f6c634300080e0033",
  "immutableReferences": {},
  "source": "// SPDX-License-Identifier: MIT\r\npragma solidity ^0.8.4;\r\n\r\nimport \"@openzeppelin/contracts/token/ERC20/ERC20.sol\";\r\nimport \"@openzeppelin/contracts/token/ERC20/extensions/ERC20Burnable.sol\";\r\nimport \"@openzeppelin/contracts/security/Pausable.sol\";\r\nimport \"@openzeppelin/contracts/access/Ownable.sol\";\r\n\r\n/// @custom:security-contact 0xconcordance@protonmail.com\r\ncontract SafeWrappedDollar is ERC20, ERC20Burnable, Pausable, Ownable {\r\n\r\n    address sUSDContractAddr;\r\n    address chainLinkOracle;\r\n    address poolAddressProviderAddr;\r\n\r\n    IERC20 sUSDContract = IERC20(address(sUSDContractAddr)); \r\n    IPoolAddressesProvider aavePoolAddressesProvider = IPoolAddressesProvider(poolAddressProviderAddr);\r\n\r\n    constructor(\r\n        address _sUSDContractAddr, \r\n        address _chainLinkOracle,\r\n        address _poolAddressProviderAddr\r\n        ) \r\n        ERC20(\"safeWrappedDollar\", \"swUSD\") {\r\n            sUSDContractAddr = _sUSDContractAddr;\r\n            chainLinkOracle = _chainLinkOracle;\r\n            poolAddressProviderAddr = _poolAddressProviderAddr;\r\n        }\r\n    \r\n    \r\n    function pause() public onlyOwner {\r\n        _pause();\r\n    }\r\n\r\n    function unpause() public onlyOwner {\r\n        _unpause();\r\n    }\r\n\r\n    function mint(address to, uint256 amount) public onlyOwner {\r\n        _mint(to, amount);\r\n    }\r\n\r\n    function _beforeTokenTransfer(address from, address to, uint256 amount)\r\n        internal\r\n        whenNotPaused\r\n        override\r\n    {\r\n        super._beforeTokenTransfer(from, to, amount);\r\n    }\r\n\r\n    /*\r\n    MINT:\r\n        - requires sUSD\r\n        - contract transfers and deposits into Aave\r\n        - mints 1-1 sUSD\r\n    */\r\n\r\n    function mintSafeUSD(uint _amount) public {\r\n        // initialize the contract\r\n        IPool aavePoolContract = IPool(address(0x139d8F557f70D1903787e929D7C42165c4667229));\r\n\r\n        // transfer the users fund \r\n        sUSDContract.transferFrom(msg.sender, address(this), _amount);\r\n        sUSDContract.approve(address(0x139d8F557f70D1903787e929D7C42165c4667229), _amount);\r\n\r\n        // supply the funds to the aave Pool\r\n        aavePoolContract.supply(sUSDContractAddr, _amount, address(this), 0);\r\n\r\n        // mint swUSD\r\n        _mint(msg.sender, _amount);\r\n\r\n    }\r\n\r\n}\r\n\r\ninterface IPool {\r\n    function supply(address asset, uint256 amount, address onBehalfOf, uint16 referralCode) external;\r\n    function withdraw(address asset, uint256 amount, address to) external;\r\n}\r\n\r\ninterface IPoolAddressesProvider {\r\n    function getPool() external view returns (address);\r\n}",
  "sourcePath": "C:\\Users\\dieta\\Documents\\stablecoin-safety-wrapper\\contracts\\erc20.sol",
  "compiler": {
    "name": "solc",
    "version": "0.8.14+commit.80d49f37.Emscripten.clang"
  },
  "schemaVersion": "3.4.7",
  "updatedAt": "2022-05-31T08:15:48.218Z",
  "devdoc": {
    "custom:security-contact": "0xconcordance@protonmail.com",
    "kind": "dev",
    "methods": {
      "allowance(address,address)": {
        "details": "See {IERC20-allowance}."
      },
      "approve(address,uint256)": {
        "details": "See {IERC20-approve}. NOTE: If `amount` is the maximum `uint256`, the allowance is not updated on `transferFrom`. This is semantically equivalent to an infinite approval. Requirements: - `spender` cannot be the zero address."
      },
      "balanceOf(address)": {
        "details": "See {IERC20-balanceOf}."
      },
      "burn(uint256)": {
        "details": "Destroys `amount` tokens from the caller. See {ERC20-_burn}."
      },
      "burnFrom(address,uint256)": {
        "details": "Destroys `amount` tokens from `account`, deducting from the caller's allowance. See {ERC20-_burn} and {ERC20-allowance}. Requirements: - the caller must have allowance for ``accounts``'s tokens of at least `amount`."
      },
      "decimals()": {
        "details": "Returns the number of decimals used to get its user representation. For example, if `decimals` equals `2`, a balance of `505` tokens should be displayed to a user as `5.05` (`505 / 10 ** 2`). Tokens usually opt for a value of 18, imitating the relationship between Ether and Wei. This is the value {ERC20} uses, unless this function is overridden; NOTE: This information is only used for _display_ purposes: it in no way affects any of the arithmetic of the contract, including {IERC20-balanceOf} and {IERC20-transfer}."
      },
      "decreaseAllowance(address,uint256)": {
        "details": "Atomically decreases the allowance granted to `spender` by the caller. This is an alternative to {approve} that can be used as a mitigation for problems described in {IERC20-approve}. Emits an {Approval} event indicating the updated allowance. Requirements: - `spender` cannot be the zero address. - `spender` must have allowance for the caller of at least `subtractedValue`."
      },
      "increaseAllowance(address,uint256)": {
        "details": "Atomically increases the allowance granted to `spender` by the caller. This is an alternative to {approve} that can be used as a mitigation for problems described in {IERC20-approve}. Emits an {Approval} event indicating the updated allowance. Requirements: - `spender` cannot be the zero address."
      },
      "name()": {
        "details": "Returns the name of the token."
      },
      "owner()": {
        "details": "Returns the address of the current owner."
      },
      "paused()": {
        "details": "Returns true if the contract is paused, and false otherwise."
      },
      "renounceOwnership()": {
        "details": "Leaves the contract without owner. It will not be possible to call `onlyOwner` functions anymore. Can only be called by the current owner. NOTE: Renouncing ownership will leave the contract without an owner, thereby removing any functionality that is only available to the owner."
      },
      "symbol()": {
        "details": "Returns the symbol of the token, usually a shorter version of the name."
      },
      "totalSupply()": {
        "details": "See {IERC20-totalSupply}."
      },
      "transfer(address,uint256)": {
        "details": "See {IERC20-transfer}. Requirements: - `to` cannot be the zero address. - the caller must have a balance of at least `amount`."
      },
      "transferFrom(address,address,uint256)": {
        "details": "See {IERC20-transferFrom}. Emits an {Approval} event indicating the updated allowance. This is not required by the EIP. See the note at the beginning of {ERC20}. NOTE: Does not update the allowance if the current allowance is the maximum `uint256`. Requirements: - `from` and `to` cannot be the zero address. - `from` must have a balance of at least `amount`. - the caller must have allowance for ``from``'s tokens of at least `amount`."
      },
      "transferOwnership(address)": {
        "details": "Transfers ownership of the contract to a new account (`newOwner`). Can only be called by the current owner."
      }
    },
    "version": 1
  },
  "userdoc": {
    "kind": "user",
    "methods": {},
    "version": 1
  }
}