{
  "contractName": "SimpleStorage",
  "abi": [
    {
      "inputs": [
        {
          "internalType": "uint256",
          "name": "x",
          "type": "uint256"
        }
      ],
      "name": "set",
      "outputs": [],
      "stateMutability": "nonpayable",
      "type": "function"
    },
    {
      "inputs": [],
      "name": "get",
      "outputs": [
        {
          "internalType": "uint256",
          "name": "",
          "type": "uint256"
        }
      ],
      "stateMutability": "view",
      "type": "function"
    },
    {
      "inputs": [
        {
          "internalType": "string",
          "name": "_secondValue",
          "type": "string"
        }
      ],
      "name": "setSecond",
      "outputs": [],
      "stateMutability": "nonpayable",
      "type": "function"
    },
    {
      "inputs": [],
      "name": "getSecond",
      "outputs": [
        {
          "internalType": "string",
          "name": "",
          "type": "string"
        }
      ],
      "stateMutability": "view",
      "type": "function"
    }
  ],
  "bytecode": "0x608060405234801561001057600080fd5b50610597806100206000396000f3fe608060405234801561001057600080fd5b506004361061004c5760003560e01c80631b03316f14610051578063506238341461006f57806360fe47b11461008b5780636d4ce63c146100a7575b600080fd5b6100596100c5565b60405161006691906102c0565b60405180910390f35b6100896004803603810190610084919061042b565b610157565b005b6100a560048036038101906100a091906104aa565b610171565b005b6100af61017b565b6040516100bc91906104e6565b60405180910390f35b6060600180546100d490610530565b80601f016020809104026020016040519081016040528092919081815260200182805461010090610530565b801561014d5780601f106101225761010080835404028352916020019161014d565b820191906000526020600020905b81548152906001019060200180831161013057829003601f168201915b5050505050905090565b806001908051906020019061016d929190610184565b5050565b8060008190555050565b60008054905090565b82805461019090610530565b90600052602060002090601f0160209004810192826101b257600085556101f9565b82601f106101cb57805160ff19168380011785556101f9565b828001600101855582156101f9579182015b828111156101f85782518255916020019190600101906101dd565b5b509050610206919061020a565b5090565b5b8082111561022357600081600090555060010161020b565b5090565b600081519050919050565b600082825260208201905092915050565b60005b83811015610261578082015181840152602081019050610246565b83811115610270576000848401525b50505050565b6000601f19601f8301169050919050565b600061029282610227565b61029c8185610232565b93506102ac818560208601610243565b6102b581610276565b840191505092915050565b600060208201905081810360008301526102da8184610287565b905092915050565b6000604051905090565b600080fd5b600080fd5b600080fd5b600080fd5b7f4e487b7100000000000000000000000000000000000000000000000000000000600052604160045260246000fd5b61033882610276565b810181811067ffffffffffffffff8211171561035757610356610300565b5b80604052505050565b600061036a6102e2565b9050610376828261032f565b919050565b600067ffffffffffffffff82111561039657610395610300565b5b61039f82610276565b9050602081019050919050565b82818337600083830152505050565b60006103ce6103c98461037b565b610360565b9050828152602081018484840111156103ea576103e96102fb565b5b6103f58482856103ac565b509392505050565b600082601f830112610412576104116102f6565b5b81356104228482602086016103bb565b91505092915050565b600060208284031215610441576104406102ec565b5b600082013567ffffffffffffffff81111561045f5761045e6102f1565b5b61046b848285016103fd565b91505092915050565b6000819050919050565b61048781610474565b811461049257600080fd5b50565b6000813590506104a48161047e565b92915050565b6000602082840312156104c0576104bf6102ec565b5b60006104ce84828501610495565b91505092915050565b6104e081610474565b82525050565b60006020820190506104fb60008301846104d7565b92915050565b7f4e487b7100000000000000000000000000000000000000000000000000000000600052602260045260246000fd5b6000600282049050600182168061054857607f821691505b60208210810361055b5761055a610501565b5b5091905056fea2646970667358221220a5602eaaa2f1b0a9b363004904e822cda2c5200fb2674c438343716d450262be64736f6c634300080e0033",
  "immutableReferences": {},
  "source": "// SPDX-License-Identifier: MIT\r\npragma solidity ^0.8.0;\r\n\r\nimport \"@openzeppelin/contracts/token/ERC721/ERC721.sol\";\r\n\r\ncontract SimpleStorage {\r\n  uint storedData;\r\n\r\n  function set(uint x) public {\r\n    storedData = x;\r\n  }\r\n\r\n  function get() public view returns (uint) {\r\n    return storedData;\r\n  }\r\n\r\n  string secondValue;\r\n\r\n  function setSecond(string memory _secondValue) public {\r\n    secondValue = _secondValue;\r\n  }\r\n\r\n  function getSecond() public view returns (string memory) {\r\n    return secondValue;\r\n  }\r\n\r\n}\r\n",
  "sourcePath": "c:\\Users\\dieta\\Documents\\stablecoin-safety-wrapper\\contracts\\SimpleStorage.sol",
  "compiler": {
    "name": "solc",
    "version": "0.8.14+commit.80d49f37.Emscripten.clang"
  },
  "schemaVersion": "3.4.7",
  "updatedAt": "2022-05-24T09:17:03.724Z",
  "devdoc": {
    "kind": "dev",
    "methods": {},
    "version": 1
  },
  "userdoc": {
    "kind": "user",
    "methods": {},
    "version": 1
  }
}